:100000000C9434000C9451000C9451000C94510049
:100010000C9451000C9451000C9451000C9451001C
:100020000C9451000C9451000C9451000C9451000C
:100030000C9451000C9451000C9451000C945100FC
:100040000C9451000C9451000C9435010C94510007
:100050000C9434010C9451000C9451000C945100F8
:100060000C9451000C94510011241FBECFEFD8E026
:10007000DEBFCDBF11E0A0E0B1E0ECECF4E002C0E7
:1000800005900D92A831B107D9F721E0A8E1B1E0C0
:1000900001C01D92AF31B207E1F70E9423020C9418
:1000A00064020C94000082E08093C00080E190E044
:1000B0009093C5008093C40088E18093C10086E0DE
:1000C0008093C20008959091C00095FFFCCF80936B
:1000D000C60008958091C00087FFFCCF8091C600C4
:1000E0000895CF93DF93EC018881811103C0DF91E4
:1000F000CF91089521960E946300F6CFEF92FF9270
:100100001F93CF93DF93CDB7DEB72B970FB6F8943D
:10011000DEBF0FBECDBF20E097FF04C09195819553
:10012000910921E010E0EAE0F0E00BC0BF010E947D
:100130003C021F5FDE011196AE0DBF1D805D8C93EA
:10014000CB01E12EF12C8A30910584F7FE01319626
:10015000EE0DFF1D805D8083211519F08DE20E9458
:100160006300CE010296E80EF91E11110EC08981BE
:100170002B960FB6F894DEBF0FBECDBFDF91CF91A7
:100180001F91FF90EF900C946300F70182917F0123
:100190000E9463001150E9CFCF92DF92EF92FF925D
:1001A0000F931F93CF93DF93CDB7DEB76B970FB647
:1001B000F894DEBF0FBECDBF7C0181E1E6E0F1E047
:1001C000DE01119601900D928A95E1F783E091E0AE
:1001D0000E947100E114F104F1F06E0182E1C80E99
:1001E000D11CD60100E010E01E141F042CF10C0DF0
:1001F0001D1D0C151D0589F56B960FB6F894DEBF15
:100200000FBECDBFDF91CF911F910F91FF90EF9067
:10021000DF90CF90089580E36B960FB6F894DEBF21
:100220000FBECDBFDF91CF911F910F91FF90EF9047
:10023000DF90CF900C9463000F5F1F4FEE2DEF7097
:10024000F0E0CE010196E80FF91F80818D9384E0E4
:10025000F594E7948A95E1F7C7CFF80180810E9471
:10026000630001501109C5CF189518951092B90077
:1002700088E48093B800089584EA8093BC0080915C
:10028000BC0087FFFCCF089584E98093BC000895EB
:100290008093BB0084E88093BC008091BC0087FF02
:1002A000FCCF0895811551F084EC8093BC008091BF
:1002B000BC0087FFFCCF8091BB00089584E8F5CF98
:1002C000CF93DF9300D00F92CDB7DEB789836A83D7
:1002D0004B830E943C018981880F0E9448018A81DA
:1002E0000E9448018B810E94480184E98093BC00F0
:1002F0000F900F900F90DF91CF910895EF92FF92A2
:100300000F931F93CF93DF93D82FC62FF42E152F63
:10031000022F0E943C018D2F880F0E9448018C2FD4
:100320000E944801CF2DD12FE12CF12C0150110B4F
:10033000E016F10654F084E98093BC00DF91CF9180
:100340001F910F91FF90EF90089589910E944801AD
:100350008FEFE81AF80AECCFCF93DF9300D0CDB738
:10036000DEB78A8369830E943C018A81880F8A8371
:100370000E94480189810E9448010E943C018A81B3
:1003800081600E94480180E00E94520194E99093AC
:10039000BC000F900F90DF91CF9108950F931F93A2
:1003A000CF93DF9300D000D000D0CDB7DEB78C83E1
:1003B000162F49835E832B830E943C012C81220FE0
:1003C0002C83822F0E944801812F0E9448010E94A5
:1003D0003C018C8181600E94480109811E811C8240
:1003E0001D824B814150550B49835A834C815D815D
:1003F0008B814817510571F484E98093BC000F90FC
:100400000F900F900F900F900F90DF91CF911F9151
:100410000F91089581E0EC81FD8129813A81E217F5
:10042000F3070CF080E00E945201F80181938F01E4
:100430002C813D812F5F3F4F2C833D83D7CF60E0E0
:1004400088E60C94AC010E9453000E94360160E0E3
:1004500088E60E94AC0190E00E94CC0080E091E030
:100460000E9471002FEF83ED90E321508040904077
:10047000E1F700C00000EBCF97FB072E16F40094C5
:1004800007D077FD09D00E94500207FC05D03EF44A
:10049000909581959F4F0895709561957F4F089530
:1004A000AA1BBB1B51E107C0AA1FBB1FA617B7079A
:1004B00010F0A61BB70B881F991F5A95A9F78095B6
:0C04C0009095BC01CD010895F894FFCF89
:1004CC000D0A003078003031323334353637383954
:0804DC00414243444546000083
:00000001FF
