:100000000C9434000C9449000C9449000C94490061
:100010000C9449000C9449000C9449000C9449003C
:100020000C9449000C9449000C9449000C9449002C
:100030000C9449000C9449000C9449000C9449001C
:100040000C9449000C9449000C942D010C94490027
:100050000C942C010C9449000C9449000C94490018
:100060000C9449000C94490011241FBECFEFD8E036
:10007000DEBFCDBF11E0A0E0B1E0E4EBF4E002C0F0
:1000800005900D92A831B107D9F70E9417020C9480
:1000900058020C94000082E08093C00080E190E060
:1000A0009093C5008093C40088E18093C10086E0EE
:1000B0008093C20008959091C00095FFFCCF80937B
:1000C000C60008958091C00087FFFCCF8091C600D4
:1000D0000895CF93DF93EC018881811103C0DF91F4
:1000E000CF91089521960E945B00F6CFEF92FF9288
:1000F0001F93CF93DF93CDB7DEB72B970FB6F8944E
:10010000DEBF0FBECDBF20E097FF04C09195819563
:10011000910921E010E0EAE0F0E00BC0BF010E948D
:1001200030021F5FDE011196AE0DBF1D805D8C9306
:10013000CB01E12EF12C8A30910584F7FE01319636
:10014000EE0DFF1D805D8083211519F08DE20E9468
:100150005B00CE010296E80EF91E11110EC08981D6
:100160002B960FB6F894DEBF0FBECDBFDF91CF91B7
:100170001F91FF90EF900C945B00F70182917F013B
:100180000E945B001150E9CFCF92DF92EF92FF9275
:100190000F931F93CF93DF93CDB7DEB76B970FB657
:1001A000F894DEBF0FBECDBF7C0181E1E6E0F1E057
:1001B000DE01119601900D928A95E1F783E091E0BE
:1001C0000E946900E114F104F1F06E0182E1C80EB1
:1001D000D11CD60100E010E01E141F042CF10C0D00
:1001E0001D1D0C151D0589F56B960FB6F894DEBF25
:1001F0000FBECDBFDF91CF911F910F91FF90EF9078
:10020000DF90CF90089580E36B960FB6F894DEBF31
:100210000FBECDBFDF91CF911F910F91FF90EF9057
:10022000DF90CF900C945B000F5F1F4FEE2DEF70AF
:10023000F0E0CE010196E80FF91F80818D9384E0F4
:10024000F594E7948A95E1F7C7CFF80180810E9481
:100250005B0001501109C5CF189518951092B9008F
:1002600088E48093B800089584EA8093BC0080916C
:10027000BC0087FFFCCF089584E98093BC000895FB
:100280008093BB0084E88093BC008091BC0087FF12
:10029000FCCF0895811551F084EC8093BC008091CF
:1002A000BC0087FFFCCF8091BB00089584E8F5CFA8
:1002B000CF93DF9300D00F92CDB7DEB789836A83E7
:1002C0004B830E9434018981880F0E9440018A81FA
:1002D0000E9440018B810E94400184E98093BC0010
:1002E0000F900F900F90DF91CF910895EF92FF92B2
:1002F0000F931F93CF93DF93D82FC62FF42E152F74
:10030000022F0E9434018D2F880F0E9440018C2FF4
:100310000E944001CF2DD12FE12CF12C0150110B67
:10032000E016F10654F084E98093BC00DF91CF9190
:100330001F910F91FF90EF90089589910E944001C5
:100340008FEFE81AF80AECCFCF93DF9300D0CDB748
:10035000DEB78A8369830E9434018A81880F8A8389
:100360000E94400189810E9440010E9434018A81DB
:1003700081600E94400180E00E944A0194E99093CC
:10038000BC000F900F90DF91CF9108950F931F93B2
:10039000CF93DF9300D000D000D0CDB7DEB78C83F1
:1003A000162F49835E832B830E9434012C81220FF8
:1003B0002C83822F0E944001812F0E9440010E94C5
:1003C00034018C8181600E94400109811E811C8260
:1003D0001D824B814150550B49835A834C815D816D
:1003E0008B814817510571F484E98093BC000F900C
:1003F0000F900F900F900F900F90DF91CF911F9162
:100400000F91089581E0EC81FD8129813A81E21705
:10041000F3070CF080E00E944A01F80181938F01FC
:100420002C813D812F5F3F4F2C833D83D7CF0E948E
:100430004B000E942E0160E088E60E94A40190E03B
:100440000E94C40080E091E00E9469002FEF83EDDC
:1004500090E3215080409040E1F700C00000EBCFD6
:1004600097FB072E16F4009407D077FD09D00E9461
:10047000440207FC05D03EF4909581959F4F089566
:10048000709561957F4F0895AA1BBB1B51E107C072
:10049000AA1FBB1FA617B70710F0A61BB70B881F14
:1004A000991F5A95A9F780959095BC01CD010895A3
:0404B000F894FFCFEE
:1004B4000D0A00307800303132333435363738396C
:0804C40041424344454600009B
:00000001FF
